:020000040000FA
:0608000046EF2DF012008E
:020806001200DE
:0608080016EF04F01200DF
:060818000AEF06F01200D9
:02081E000100D7
:0C082000CB5A0000C90000002E000000B0
:04082C00DACFE4FF3C
:10083000E2CFDAFFE9CFE4FFEACFE4FFF6CFE4FF4F
:10084000F7CFE4FFF5CFE4FFF3CFE4FFF4CFE4FF0D
:10085000FACFE4FF00EE00F0140EE80403E3EECF5D
:10086000E4FFFBD700EE14F0080EE80403E3EECF3C
:10087000E4FFFBD7E652F2A42CD1D59EFC0ED76E36
:100880003F0ED66ED58E0101072B000E0823010105
:100890008F2B000E9023912392230101932B000EA6
:1008A0009423952396230101972B000E98239923D7
:1008B0009A2301019B2B000E9C239D239E23010163
:1008C000092B000E0A230101F52B000EF623320E30
:1008D0000001815D02E20001812B030E010100197C
:1008E00001E1015101E17FD0020E0101001901E196
:1008F00001513CE0010E0101001901E1015107E045
:100900000101005101E1015101E0DDD0E1D0805051
:10091000100B100A01E0010E010808E10101026B51
:10092000036B0101002B000E01231FD00101022BDC
:10093000000E03230101F40ED8800255010E035569
:1009400014E20101026B036B0101010E0D1901E1BB
:100950000E5106E00101070E0D1901E10E5105E1EE
:100960000101AA5101E0B4D0897EB2D080A805D09F
:1009700001010007000E015B35D00101022B000EC2
:1009800003230101320ED8800255000E03552AE2DE
:10099000000EE66EE66A000EE66EE66A2EEC0AF0DF
:1009A000E552E552E552E552899E899C8A908A98E3
:1009B000020E01010D1901E10E510BE001010D5173
:1009C00001E10E5101E00AD0898E0101096B0A6B29
:1009D00005D0040E01010D6F0E6B00D00101002B3C
:1009E000000E012375D080A841D0040E01010D191D
:1009F00001E10E5135E0070E01010D1901E10E5123
:100A00002AE0050E01010D1901E10E511FE0030E50
:100A100001010D1901E10E5114E0010E01010D1942
:100A200001E10E5109E001010D5101E10E5101E01A
:100A300018D00101AA8115D0020E01010D6F0E6BB5
:100A400010D0010E01010D6F0E6B0BD0060E0101CF
:100A50000D6F0E6B06D0080E01010D6F0E6B01D0ED
:100A6000FF000101002B000E01232CD0050E010117
:100A70000D1901E10E5116E001010D5101E10E5178
:100A800001E020D00101D00ED8800955070E0A558B
:100A900008E2899C050E01010D6F0E6B0101026BCE
:100AA000036B10D00101022B000E03230101640E21
:100AB000D8800255000E035504E20101026B036B5E
:100AC000897E00D005D0010E0101006F016B00D0BE
:100AD000F2949EA673D00001816B0001826B00012D
:100AE00080510F0A64E0010A5EE0030A44E0010A53
:100AF00039E0070A2EE0080A23E0010A0AE0030AA7
:100B000001E058D083C0C9FF0001846B0001802B35
:100B100054D0C5AC03D080C082F011D00001845104
:100B2000842BEA6A860FE96E000EEA22EF50C96E46
:100B3000000185510001845D02E10001802B3DD060
:100B4000C5AC03D080C082F003D0C5840001806BA7
:100B500034D0010E00018311C96E0001846B0001C5
:100B6000802B2BD0C5AC03D080C082F003D0C586CB
:100B70000001802B22D000018451842BEA6A860F69
:100B8000E96E000EEA22C9CFEFFF00018551000196
:100B9000845D04E2C59A0001800703D0C58A000184
:100BA000802BC5880AD0C5840001802B06D00001A7
:100BB000806B03D00001806B00D09E96A1A606D06A
:100BC000A196400E000180110001826FE55200EEF7
:100BD0001BF0080EE80403E3E5CFEDFFFBD700EEC2
:100BE00013F0140EE80403E3E5CFEDFFFBD7E5CFE8
:100BF000FAFFE5CFF4FFE5CFF3FFE5CFF5FFE5CF53
:100C0000F7FFE5CFF6FFE5CFEAFFE5CFE9FFE5CF58
:100C1000DAFF1100D8CFE4FFE0CFE4FFE46EDACFD3
:100C2000E4FFE2CFDAFFE9CFE4FFEACFE4FFE652E8
:100C30009EAC2CD19E9CC4CF06F1C3CF05F101011F
:100C40000451EA6AA00FE96E010EEA22EF5005088E
:100C500001E09BD001010C3504E20B510308000EAA
:100C60000C5501E391D005C105F106C106F1010162
:100C7000FF0ED8800557030E0657010E0101D890CC
:100C800005370637E806FBE10101900E055D010E10
:100C9000065905E20101900E056F010E066F900ED8
:100CA0000101055F010E0101065B0101FF0ED88005
:100CB0000555030E065504E201010569030E066F92
:100CC00001010451E96EEA6AD890E936EA360F0E5E
:100CD000E926010EEA22EE5001010527EE5001013E
:100CE000062305C11CF006C11DF0010E0F0B05E027
:100CF000D8901D321C32E806FBE101010451E96E77
:100D0000EA6AD890E936EA360F0EE926010EEA22A1
:100D10001CC0EEFF1DC0EDFF01010B6B0C6B010150
:100D20000451090A2EE0010A29E00F0A24E0010A11
:100D30001FE0030A1AE0010A15E0070A10E0010AA1
:100D40000BE0030A06E0010A01E01ED092908980C0
:100D50001BD09292898218D09294898415D0929651
:100D6000898612D0929A898A0FD093948A840CD063
:100D700093968A8609D093928A8206D093988A881D
:100D800003D093908A8000D02CD001010451E96EE9
:100D9000EA6AD890E936EA360F0EE926010EEA2211
:100DA000EE5001010527EE500101062305C11CF09C
:100DB00006C11DF0010E0F0B05E0D8901D321C324C
:100DC000E806FBE101010451E96EEA6AD890E936D0
:100DD000EA360F0EE926010EEA221CC0EEFF1DC006
:100DE000EDFF0A0E1C6E0101042B01010451D88095
:100DF0001C5402E30101046B01010451EA6AA00FD3
:100E0000E96E010EEA22EF50050837E101010B2BD4
:100E1000000E0C2301010C3504E20B510308000EF7
:100E20000C552BE201010451090A25E0010A21E0D9
:100E30000F0A1DE0010A19E0030A15E0010A11E09A
:100E4000070A0DE0010A09E0030A05E0010A01E0D2
:100E500014D0928012D0928210D092840ED09286BA
:100E60000CD0928A0AD0938408D0938606D09382BD
:100E700004D0938802D0938000D001010451EA6A23
:100E8000C90FE96E000EEA22EF50C26E9EAA98D0FA
:100E9000ABA403D0AECFF9F193D0ABA203D0AB9803
:100EA000AB888ED0AECFF9F10101010E0D1901E131
:100EB0000E5173E00101FA51080A66E00F0A5AE088
:100EC000010A4EE0030A42E0010A36E0070A2AE07E
:100ED000010A1EE0030A12E0010A01E05ED0520E90
:100EE0000101F95D03E10101010EFA6F560E0101E6
:100EF000F95D03E10101050EFA6F4FD0650E0101A6
:100F0000F95D02E1020E01D0000E0101FA6F45D039
:100F1000730E0101F95D02E1030E01D0000E010123
:100F2000FA6F3BD0650E0101F95D02E1040E01D0BC
:100F3000000E0101FA6F31D0740E0101F95D02E17A
:100F4000070E01D0000E0101FA6F27D0650E0101D6
:100F5000F95D02E1060E01D0000E0101FA6F1DD00D
:100F6000720E0101F95D02E1070E01D0000E0101D0
:100F7000FA6F13D00D0E0101F95D02E1080E01D0E8
:100F8000000E0101FA6F09D00A0E0101F95D02E1BC
:100F9000FF0002D00101FA6B00D00101F751EA6AAB
:100FA000D40FE96E010EEA22F9C1EFFF1F0E1C6E8D
:100FB0000101F72B0101F7511C5C02E20101F76B03
:100FC000E552E5CFEAFFE5CFE9FFE5CFDAFFE550EF
:100FD000E5CFE0FFE5CFD8FF1000D9CFE6FFE1CFA6
:100FE000D9FF030EE126F00ED36EC00E9B6E0101F9
:100FF000FA6B01010D6B0E6B006B016B026B036BE7
:10100000010EDB6A020EDB6A010EDBCF14F0020E6A
:10101000DBCF15F0D890155004E61A0E145C000EC4
:1010200015581AE2010EDBCFE9FF020EDBCFEAFF13
:10103000D890E936EA36D890E936EA36270EE9261E
:10104000010EEA22EE6AEE6AEE6AEE6A010EDB2A11
:10105000020EDAE3DB2AD8D7010EDB6A020EDB6A66
:10106000010EDBCF14F0020EDBCF15F0D890155037
:1010700004E6040E145C000E15581AE2010EDBCFD4
:10108000E9FF020EDBCFEAFFD890E936EA36D890C6
:10109000E936EA368F0EE926010EEA22EE6AEE6A9A
:1010A000EE6AEE6A010EDB2A020EDAE3DB2AD8D7FB
:1010B000010EDB6A020EDB6A010EDBCF14F0020EBA
:1010C000DBCF15F0D890155004E60A0E145C000E24
:1010D000155811E2010EDBCFE9FF020EDBCFEAFF6C
:1010E000A00EE926010EEA22010EEF6EDB2A020EA7
:1010F000E3E3DB2AE1D70101236B246B256B266B2D
:10110000046B0B6B0C6BAA6BAB6B096B0A6B076BFD
:10111000086B896A3F0EDF6EDF50926E8A6A1F0E7F
:10112000DF6E0001DB1DDF16E66A080EE66E3EECA0
:101130000DF0E552E5520101A86B0001D31DDF1649
:10114000E66A090EE66E3EEC0DF0E552E55201014D
:10115000A96BDF50936E180E8B6E980E946E020E74
:10116000D56EFC0ED76E3F0ED66ED58EF294F28AF7
:10117000F184B00EB16EA292A192A092B1809D9224
:10118000010ECA6ECC68CB68CA849F6F000E256FB3
:10119000266B236F246BE66EE66AE66EE66AC8D8B5
:1011A000E552E552E552E5529F9C9D8CBE0EC06E05
:1011B000020EC16E01010451EA6AC90FE96E000E08
:1011C000EA22EF50C26E41EC19F029EC12F0D09CEB
:1011D000D08EF28EF28C220E146E560E156E166A9A
:1011E00014C0E6FFE66E16C0E6FF90EC19F0E5527B
:1011F000E552E55223EC1CF0010E0101006F016B7A
:101200008050100B100A01E0010E0108F9E0010105
:101210000D510E1103E1010E0D6F0E6BD40EE66E33
:10122000010EE66EE66849EC13F0E552E552E55230
:10123000898E030EE15C02E2E16AE552E16EE5525D
:10124000E7CFD9FF1200C9DEF40EE66E010EE66E9E
:10125000DBD8E552E55290EC17F00101096B0A6BFF
:10126000D6EC19F0000902E0DCEC19F0070E0101E0
:101270000D1901E10E5159E0050E0D1901E10E5154
:101280004FE0060E0D1901E10E514AE0020E0D1954
:1012900001E10E5116E0030E0D1901E10E5111E0AE
:1012A000010E0D19DDE10E51DBE1CC51095DCD518F
:1012B0000A59D6E3096B0A6BAAA1D2D77CEC1CF0C1
:1012C000CFD7150E146E560E156E166A14C0E6FFB3
:1012D000E66E16C0E6FF010EE66EE5EC12F0E55292
:1012E000E552E552E552060E146E560E156E166A5C
:1012F00014C0E6FFE66E16C0E6FF020EE66EE5ECF1
:1013000012F0E552E552E552E55219EC28F0899EBB
:10131000899C8A908A98010E01010D6F0E6BA0D7EF
:10132000B6EC0EF043EC0FF09BD772EC10F098D7B0
:10133000D9CFE6FFE1CFD9FF040EE126FD0EDBCFCA
:1013400014F0FE0EDBCF15F0FF0ED8801454030E00
:10135000155407E2FD0EDB68030EF36EFE0EF3CFAD
:10136000DBFFFB0EDBCF14F0FC0EDBCF15F0FF0E26
:10137000D8801454030E155407E2FB0EDB68030EED
:10138000F36EFC0EF3CFDBFFFB0EDBCF14F0FC0E95
:10139000DBCF15F0060ED89014361536E804FBE1C5
:1013A00014C0DEFF15C0DDFFFD0EDBCF14F0FE0E16
:1013B000DBCF15F0060ED89014361536E804FBE1A5
:1013C000020E14C0DBFF030E15C0DBFF010EDB5065
:1013D000BE6E030EDB50BB6EDF50E840E8403F0BB3
:1013E000300B0C09BD6E020EDB40E8403F0B300BAA
:1013F0000C09BA6E040EE15C02E2E16AE552E16EAC
:10140000E552E7CFD9FF1200D9CFE6FFE1CFD9FFF0
:10141000020EE126F29A0101096B0A6BF28AF29A36
:1014200009C1DEFF0AC1DDFFF28ADECF14F0DDCF95
:1014300015F0FD0EDBCF16F0FE0EDBCF17F01650C9
:10144000145C17501558EBE3020EE15C02E2E16A0E
:10145000E552E16EE552E7CFD9FF1200D9CFE6FFA2
:10146000E1CFD9FF0A0EE12623C114F024C115F003
:10147000FD0EDB50141811E1FE0EDB5015180DE1C6
:1014800025C116F026C117F0FB0EDB50161805E13A
:10149000FC0EDB50171801E1E7D2000EE66EE66A9B
:1014A000E66EE66A45DFE552E552E552E5528B9A73
:1014B0008B908A9C8A9AA092A192B190B368050EF3
:1014C000B26EB180080EF7C0DBFFFD0EDBCF14F06B
:1014D000FE0EDBCF15F0153401E387D01450000861
:1014E000000E155401E381D0010EF36E040EF3CF0C
:1014F000DBFF060EDB6A080E086E096AFD0EDBCF05
:101500000DF0FE0EDBCF0EF0A2EC2AF006C0DEFFDF
:1015100007C0DDFF0001000ED880F755000EF8551A
:1015200001E3F8D0DECF14F0DDCF15F015341EE264
:1015300014509008010E155419E2DECF16F0DDCFDD
:1015400017F0900E165E010E175A16C008F017C05D
:1015500009F0FBC00DF0FCC00EF0F2EC2CF0000125
:10156000F7510824146EF851092027D0DECF14F06B
:10157000DDCF15F0900ED8801456010E1556F75198
:10158000145CF85115581CE2DECF16F0DDCF17F0D1
:10159000900ED8801656010E175616C008F017C0C8
:1015A00009F0FBC00DF0FCC00EF0F2EC2CF00001D5
:1015B0000850F75D146E0950F859080E14C0DBFF8F
:1015C000080EDB50146E156ADECF16F0DDCF17F073
:1015D00015501718E8AE02D0173404D01650145C1A
:1015E0001750155801E396D089D0FD0EDBCF14F0CB
:1015F000FE0EDBCF15F00001800E151401E18FD037
:10160000040EDB6A010EF36E060EF3CFDBFFF80E5D
:10161000086E0968FD0EDBCF0DF0FE0EDBCF0EF07D
:10162000A2EC2AF006C0DEFF07C0DDFF0001000EBD
:10163000D880F755000EF8556DE2DECF14F0DDCFFF
:1016400015F015341EE214509008010E155419E2DD
:10165000DECF16F0DDCF17F0900E165E010E175A92
:1016600016C008F017C009F0FBC00DF0FCC00EF06A
:10167000F2EC2CF00001F7510824146EF851092007
:1016800027D0DECF14F0DDCF15F0900ED8801456A1
:10169000010E1556F751145CF85115581CE2DECFB7
:1016A00016F0DDCF17F0900ED8801656010E1756A3
:1016B00016C008F017C009F0FBC00DF0FCC00EF01A
:1016C000F2EC2CF000010850F75D146E0950F85947
:1016D000080E14C0DBFF080EDB50146E156ADECF57
:1016E00016F0DDCF17F015501718E8AE02D01734FA
:1016F00004D01650145C175015580CE2080EDB503D
:10170000146E156AD9CFE9FFDACFEAFFE850EE5E32
:101710001550ED5A640EDE26000EDD220FD00101B9
:101720009F510CE0010EF36E040EF3CFDBFF010EB0
:10173000F36E060EF3CFDBFFDE6ADD6A090EF9C039
:10174000DBFFFB0EDBCF14F0FC0EDBCF15F0153406
:1017500001E393D014500008000E155401E38DD01E
:10176000010EF36E050EF3CFDBFF070EDB6A080EEA
:10177000086E096AFB0EDBCF0DF0FC0EDBCF0EF01E
:10178000A2EC2AF0020E06C0DBFF030E07C0DBFF4F
:101790000001000ED880F955000EFA5501E310D172
:1017A000020EDBCF14F0030EDBCF15F0153420E270
:1017B00014509008010E15541BE2020EDBCF16F0F8
:1017C000030EDBCF17F0900E165E010E175A16C0EF
:1017D00008F017C009F0FBC00DF0FCC00EF0F2ECF1
:1017E0002CF00001F9510824146EFA5109202BD075
:1017F000020EDBCF14F0030EDBCF15F0900ED88075
:101800001456010E1556F951145CFA5115581EE282
:10181000020EDBCF16F0030EDBCF17F0900ED88050
:101820001656010E175616C008F017C009F0FBC077
:101830000DF0FCC00EF0F2EC2CF000010850F95D48
:10184000146E0950FA59090E14C0DBFF090EDB5063
:10185000146E156A020EDBCF16F0030EDBCF17F005
:1018600015501718E8AE02D0173404D01650145C87
:101870001750155801E3A4D096D0FB0EDBCF14F01F
:10188000FC0EDBCF15F00001800E151401E1A2D093
:10189000050EDB6A010EF36E070EF3CFDBFFF80EC9
:1018A000086E0968FB0EDBCF0DF0FC0EDBCF0EF0EF
:1018B000A2EC2AF0020E06C0DBFF030E07C0DBFF1E
:1018C0000001000ED880F955000EFA5501E378D0DA
:1018D000020EDBCF14F0030EDBCF15F0153420E23F
:1018E00014509008010E15541BE2020EDBCF16F0C7
:1018F000030EDBCF17F0900E165E010E175A16C0BE
:1019000008F017C009F0FBC00DF0FCC00EF0F2ECBF
:101910002CF00001F9510824146EFA5109202BD043
:10192000020EDBCF14F0030EDBCF15F0900ED88043
:101930001456010E1556F951145CFA5115581EE251
:10194000020EDBCF16F0030EDBCF17F0900ED8801F
:101950001656010E175616C008F017C009F0FBC046
:101960000DF0FCC00EF0F2EC2CF000010850F95D17
:10197000146E0950FA59090E14C0DBFF090EDB5032
:10198000146E156A020EDBCF16F0030EDBCF17F0D4
:1019900015501718E8AE02D0173404D01650145C56
:1019A000175015580DE2090EDB50146E156AD95008
:1019B000020FE96EDACFEAFF1450EE5E1550ED5AD1
:1019C000D950020FE96EDACFEAFF640EEE26000E60
:1019D000ED2211D001019F510EE0010EF36E050EB4
:1019E000F3CFDBFF010EF36E070EF3CFDBFF020E2A
:1019F000DB6A030EDB6A0101010E9F6FFD0EDBCF78
:101A000023F1FE0EDBCF24F1FB0EDBCF25F1FC0E24
:101A1000DBCF26F1A1A2FED7A192020EDBCFE6FF1B
:101A2000030EDBCFE6FFDECFE6FFDDCFE6FF80DC97
:101A3000E552E552E552E552040EDB50E8B08B8AE0
:101A4000E8A08B9A060EDB50E8B08B80E8A08B9064
:101A5000050EDB50E8B08A8CE8A08A9C070EDB50AC
:101A6000E8B08A8AE8A08A9A0A0EE15C02E2E16A9A
:101A7000E552E16EE552E7CFD9FF1200D9CFE6FF7C
:101A8000E1CFD9FFFE0EDB50090A5AE0010A50E00F
:101A90000F0A46E0010A3CE0030A32E0010A28E0AE
:101AA000070A1EE0010A14E0030A0AE0010A4EE1F7
:101AB000FD0EDB50E8B08980E8B048D0899046D070
:101AC000FD0EDB50E8B08982E8B040D089923ED06C
:101AD000FD0EDB50E8B08984E8B038D0899436D068
:101AE000FD0EDB50E8B08986E8B030D089962ED064
:101AF000FD0EDB50E8B0898AE8B028D0899A26D05C
:101B0000FD0EDB50E8B08A84E8B020D08A941ED065
:101B1000FD0EDB50E8B08A86E8B018D08A9616D061
:101B2000FD0EDB50E8B08A82E8B010D08A920ED069
:101B3000FD0EDB50E8B08A88E8B008D08A9806D05D
:101B4000FD0EDB50E8B08A80E8A08A90E552E7CF2E
:101B5000D9FF1200D9CFE6FFE1CFD9FFE652DF6A05
:101B6000FE0EDB50090A35E0010A2EE00F0A28E0DC
:101B7000010A22E0030A1CE0010A16E0070A10E04D
:101B8000010A0AE0030A04E0010A26E1895022D092
:101B90008950020B20E01BD08950040B1CE017D0A9
:101BA0008950080B18E013D08950200B14E00FD097
:101BB0008A50040B10E00BD08A50080B0CE007D0C1
:101BC0008A50020B08E003D08A50100B04E0010E8B
:101BD00002D08A50010BDF6EDF50E552E552E7CFAD
:101BE000D9FF1200D9CFE6FFE1CFD9FFFE0EDB50BF
:101BF000030A1EE0010A14E0030A0AE0010A1EE1DA
:101C0000FD0EDB50E8B0898EE8B018D0899E16D062
:101C1000FD0EDB50E8B0898CE8B010D0899C0ED066
:101C2000FD0EDB50E8B08A80E8B008D08A9006D07C
:101C3000FD0EDB50E8B08A88E8A08A98E552E7CF2D
:101C4000D9FF1200D9CFE6FFE1CFD9FFE652DF6A14
:101C5000FE0EDB50030A13E0010A0DE0030A06E062
:101C6000010A12E18950800B08E003D08950400B33
:101C700004E0010E02D08A50010BDF6E05D08A50BD
:101C8000100B01E0010EDF6EDF50E552E552E7CFA9
:101C9000D9FF1200D9CFE6FFE1CFD9FFF29AFE0EAD
:101CA000DB50040DF3CFE9FFF4CFEAFF8F0EE926F6
:101CB000010EEA22EE6AEE6AEE6AEE6AF28AE552F6
:101CC000E7CFD9FF1200D9CFE6FFE1CFD9FF040E4D
:101CD000E126F29AFE0EDB50040DF3CFE9FFF4CFBC
:101CE000EAFF8F0EE926010EEA22EECFDFFF010E9A
:101CF000EECFDBFF020EEECFDBFF030EEECFDBFFFE
:101D0000F28ADECF06F0DECF07F0DECF08F0DDCFBF
:101D100009F0DD52DD52040EE15C02E2E16AE552B7
:101D2000E16EE552E7CFD9FF1200B36AB26AB18023
:101D30001200D9CFE6FFE1CFD9FF020EE126B25063
:101D4000DF6E010EB3CFDBFFDECF14F0DDCF15F079
:101D500014C0F3FF15C0F4FF020EE15C02E2E16A79
:101D6000E552E16EE552E7CFD9FF1200E66AE66A76
:101D700039DFE552E552E66A010EE66E33DFE552E1
:101D8000E552E66A020EE66E2DDFE552E552E66A9E
:101D9000030EE66E27DFE552E552050E01010D6FD9
:101DA0000E6B096B0A6BF60E146E550E156E166AE5
:101DB00014C0E6FFE66E16C0E6FF010EE66EE5EC27
:101DC00012F0E552E552E552E5520101050E0D19FA
:101DD00059E10E5157E1320ED8800F55010E1055C2
:101DE00003E2010EE66E01D0E66AE66AFBDEE5522A
:101DF000E5520101320ED8801155010E125503E251
:101E0000010EE66E02D0E66A010EE66EEBDEE552EA
:101E1000E5520101FF0ED8801355010E145503E25F
:101E2000010EE66E01D0E66A020EE66EDBDEE552DA
:101E3000E5520101FF0ED8801555010E165503E23B
:101E4000010EE66E01D0E66A030EE66ECBDEE552C9
:101E5000E5520101640ED8800955000E0A55B5E21D
:101E6000096B0A6B030EE66E020EE66E010EE66E5D
:101E7000E66A020EE66E0AEC15F0146E050EE15EDF
:101E80001450A3D71200EA0E146E550E156E166A82
:101E900014C0E6FFE66E16C0E6FF010EE66EE5EC46
:101EA00012F0E552E552E552E552DA0E146E550E87
:101EB000156E166A14C0E6FFE66E16C0E6FF020E47
:101EC000E66EE5EC12F0E552E552E552E552E66ABF
:101ED000E66A88DEE552E552E66A010EE66E82DECB
:101EE000E552E552E66A020EE66E7CDEE552E55208
:101EF000E66A030EE66E76DEE552E552010EE66E08
:101F0000E66A70DEE552E552320EE66EE66AE66E8D
:101F1000E66A2EEC0AF0E552E552E552E552E80E8B
:101F2000E66E030EE66E04EC0AF0E552E552E66A50
:101F3000E66A58DEE552E552000EE66EE66AE66EA7
:101F4000E66A2EEC0AF0E552E552E552E552C80E7B
:101F5000E66EE66A04EC0AF0E552E552010EE66E22
:101F6000E66E40DEE552E552CE0EE66EE668E66EBF
:101F7000E6682EEC0AF0E552E552E552E552E80E2D
:101F8000E66E030EE66E04EC0AF0E552E552E66AF0
:101F9000010EE66E27DEE552E552000EE66EE66AB9
:101FA000E66EE66A2EEC0AF0E552E552E552E5529D
:101FB000C80EE66EE66A04EC0AF0E552E552010E40
:101FC000E66E020EE66E0EDEE552E552320EE66E6B
:101FD000E66ACE0EE66EE6682EEC0AF0E552E552B1
:101FE000E552E552E80EE66E030EE66E04EC0AF0EA
:101FF000E552E552E66A020EE66EF4DDE552E55280
:10200000000EE66EE66AE66EE66A2EEC0AF0E5522F
:10201000E552E552E552C80EE66EE66A04EC0AF0B7
:10202000E552E552010EE66E030EE66EDBDDE5528B
:10203000E552CE0EE66EE668320EE66EE66A2EECED
:102040000AF0E552E552E552E552E80EE66E030E5F
:10205000E66E04EC0AF0E552E552E66A030EE66E1F
:10206000C1DDE552E552000EE66EE66AE66EE66A0E
:102070002EEC0AF0E552E552E552E552320EE66EDC
:10208000E66A000EE66EE66A2EEC0AF0E552E552CC
:10209000E552E552E80EE66E030EE66E04EC0AF039
:1020A000E552E552000EE66EE66A320EE66EE66A2C
:1020B0002EEC0AF0E552E552E552E552E80EE66EE6
:1020C000030EE66E04EC0AF0E552E552000EE66EF1
:1020D000E66AE66EE66A2EEC0AF0E552E552E55253
:1020E000E5521200D6EC19F0000902E0DCEC19F020
:1020F0000101080E0D1901E080D00E5101E07DD0E4
:10210000010EE66EE66A6EDDE552E552320EE66ECF
:10211000E66AE66EE66A2EEC0AF0E552E552E55212
:10212000E552D00EE66E070EE66E04EC0AF0E552BC
:10213000E552640EE66EE66AE66EE66A2EEC0AF09A
:10214000E552E552E552E552E80EE66E030EE66E04
:1021500004EC0AF0E552E552010EE66E030EE66E5F
:1021600041DDE552E552000EE66EE66AE66EE66A8D
:102170002EEC0AF0E552E552E552E552F40EE66E19
:10218000010EE66E04EC0AF0E552E552CE0EE66E64
:10219000E668E66EE6682EEC0AF0E552E552E55296
:1021A000E552D00EE66E070EE66E04EC0AF0E5523C
:1021B000E5529C0EE66EE668E66EE6682EEC0AF0E6
:1021C000E552E552E552E552E80EE66E030EE66E84
:1021D00004EC0AF0E552E552E66A030EE66E02DD13
:1021E000E552E552000EE66EE66AE66EE66A2EEC11
:1021F0000AF0E552E552E552E552070E01010D6F76
:102200000E6B70D7D9CFE6FFE1CFD9FFFD0EDBCF44
:10221000CEF1FE0EDBCFCFF10101D06BD16B770E8B
:10222000CE5F000ECF5BD05BD15B700E0B6E170ED6
:102230000C6E0D6A0E6ACEC106F0CFC107F0D0C198
:1022400008F0D1C109F063EC2CF002C0CEF103C05C
:10225000CFF104C0D0F105C0D1F1840E0B6E0D0E8C
:102260000C6E0D6A0E6A02C006F003C007F004C0CF
:1022700008F005C009F06EEC2AF006C0CEF107C0E8
:10228000CFF108C0D0F109C0D1F1640E0101CE5FD9
:10229000000ECF5BD05BD15BD880D151FF0A08E63E
:1022A000F60ECE5DFF0ECF59FF0ED059FF0ED1595D
:1022B0000BE20001190EF36FFC0EF46FF569F6697D
:1022C00007C1D2F108C1D3F10101D251075D146EEB
:1022D0000851D355156EE80E145C030E155801E233
:1022E000B0D007C1D2F108C1D3F1190E0001F31922
:1022F00011E1FC0EF4190EE1E868F5190BE1E8684C
:10230000F61908E1CEC1F3F0CFC1F4F0D0C1F5F079
:10231000D1C1F6F0F30EE96E000EEA6E030EEB503B
:102320000101D119E8AE02D0D13508D0CE51EE5C12
:10233000CF51EE58D051EE58D151EE582DE2F30E58
:10234000E96E000EEA6EEE50CE5D146EEE50CF597F
:10235000156EEE50D059166EEE50D159176EE83406
:10236000000E171809E6D880010E1454000E1554FB
:10237000000E1654000E17543DE2F3C0CEF1F4C027
:10238000CFF1F5C0D0F1F6C0D1F1020ECE27000E8C
:10239000CF23D023D1232ED0CE0EE96E010EEA6ECC
:1023A000EE500001F35D146EEE50F459156EEE50D0
:1023B000F559166EEE50F659176EE834000E1718E0
:1023C00009E6D880010E1454000E1554000E165460
:1023D000000E17540FE2F3C0CEF1F4C0CFF1F5C0F8
:1023E000D0F1F6C0D1F1020E0101CE5F000ECF5B3D
:1023F000D05BD15B0101CE510001F3270101CF5128
:102400000001F4230101D0510001F5230101D15154
:102410000001F623020E0B6E0C6A0D6A0E6AF3C001
:1024200006F0F4C007F0F5C008F0F6C009F06EEC55
:102430002AF006C0F3F007C0F4F008C0F5F009C0B8
:10244000F6F0F3C0F3FFF4C0F4FFE552E7CFD9FF95
:02245000120078
:0E245200C76A110EC86E280EC66E400EC56E0B
:10246000948694889F869E969D86A286A196A08635
:1024700006D8A00EE66E38EC2DF0E5521200D9CF4A
:10248000E6FFE1CFD9FFE652C950DF6EC69AC69C7F
:10249000C69EC59CC59A0001846B82A80CD89E96E6
:1024A000A1960001806B816B826BC68AE552E55272
:1024B000E7CFD9FF1200D9CFE6FFE1CFD9FFE6522F
:1024C0008A88C69ADF6A090EDF5C0EE29496020ED5
:1024D000E66E52EC2DF0E5529486020EE66E52EC5A
:1024E0002DF0E552DF2AEFD7E552E552E7CFD9FFCD
:1024F00012000001816B1F0EC51403E1C750040BCD
:1025000007E00A0E146E8151145CF5E229EF12F017
:102510001200D9CFE6FFE1CFD9FFE652DF6A020E03
:102520000001815DFCE3E5DFFE0EDBCF83F0FD0EF5
:10253000DBCF85F00001816B010E806FC58080517B
:1025400012E0020E146E8151145C03E2800E8011C1
:10255000826F8251F4E0C5847CDFDF2A050EDF5CE8
:10256000E9E3000E02D0816B010EE552E552E7CFA0
:10257000D9FF1200D9CFE6FFE1CFD9FF020E00014B
:10258000815DFCE3B6DFFE0EDB5001090001836FC5
:10259000FD0EDBCF85F0816B0B0E806FC580805107
:1025A0000EE0020E146E8151145C03E2800E801165
:1025B000826F8251F4E0C5844CDF000E02D0816B43
:1025C000010EE552E7CFD9FF1200D9CFE6FFE1CFE8
:1025D000D9FFE652DF6ADF50DF2AEA6A860FE96E2A
:1025E000000EEA22FE0EDBCFEFFF120EDF5C3EE2B2
:1025F000FB0EDBCFF6FFFC0EDBCFF7FFFD0EDBCFD4
:10260000F8FF0800F5501EE0D950FB0FE96EFF0EF1
:10261000DA20EA6EEFCFF6FFEE2AEFCFF7FF000EDB
:10262000EE22EFCFF8FFEE220800F550E66EDF5005
:10263000DF2AEA6A860FE96E000EEA22E552E750C9
:10264000EF6ED3D7DF0409E1DF50DF2AEA6A860F95
:10265000E96E000EEA22200EEF6EDF50DF2AEA6AF2
:10266000860FE96E000EEA22EF6ABFD7DFCFE6FFE2
:10267000160EE66E4EDFE552E552140EE66EE66A81
:1026800004EC0AF0E552E552E552E552E7CFD9FFF6
:102690001200D9CFE6FFE1CFD9FFE652DF6ADF5063
:1026A000DF2AEA6A860FE96E000EEA22FE0EDBCF11
:1026B000EFFF120EDF5C32E2FC0EDBCFE9FFFD0E16
:1026C000DBCFEAFFEF5016E0FC0EDBCFE9FFDB2AA1
:1026D000FD0EDBCFEAFF01E3DB2AEF50E66EDF50B1
:1026E000DF2AEA6A860FE96E000EEA22E552E75019
:1026F000EF6EDFD7DF0409E1DF50DF2AEA6A860FD9
:10270000E96E000EEA22200EEF6EDF50DF2AEA6A41
:10271000860FE96E000EEA22EF6ACBD7DFCFE6FF25
:10272000160EE66EF6DEE552E552140EE66EE66A29
:1027300004EC0AF0E552E552E552E552E7CFD9FF45
:102740001200D9CFE6FFE1CFD9FFFD0EDB50040D1B
:10275000F3CFE9FFF4CFEAFF270EE926010EEA22C4
:10276000EECFE6FFEECFE6FFEECFE6FFEFCFE6FFE0
:10277000FD0EDB50410FE66EE66A820E146E560EB9
:10278000156E166A14C0E6FFE66E16C0E6FFB80EB8
:10279000E66E000EE66E7CEC2BF0176E0B0EE15E23
:1027A0001750B80EE66E000EE66EFE0EDBCFE6FFAB
:1027B00070DFE552E552E552E552E7CFD9FF12004E
:1027C000D9CFE6FFE1CFD9FFFC0EDB50040DF3CFEC
:1027D000E9FFF4CFEAFF270EE926010EEA22EECF49
:1027E000E6FFEECFE6FFEECFE6FFEFCFE6FFFC0E13
:1027F000DB50410FE66EE66AFD0EDB50040DF3CFB1
:10280000E9FFF4CFEAFF270EE926010EEA22EECF18
:10281000E6FFEECFE6FFEECFE6FFEFCFE6FFFD0EE1
:10282000DB50410FE66EE66A710E146E560E156EA1
:10283000166A14C0E6FFE66E16C0E6FFB80EE66E36
:10284000000EE66E7CEC2BF0176E110EE15E175059
:10285000B80EE66E000EE66EFE0EDBCFE6FF19DF69
:10286000E552E552E552E552E7CFD9FF1200D9CF44
:10287000E6FFE1CFD9FFFB0EDB50040DF3CFE9FFFC
:10288000F4CFEAFF270EE926010EEA22EECFE6FF9B
:10289000EECFE6FFEECFE6FFEFCFE6FFFC0EDB501C
:1028A000040DF3CFE9FFF4CFEAFF270EE926010E6E
:1028B000EA22EECFE6FFEECFE6FFEECFE6FFEFCF68
:1028C000E6FFFD0EDB50040DF3CFE9FFF4CFEAFF86
:1028D000270EE926010EEA22EECFE6FFEECFE6FF55
:1028E000EECFE6FFEFCFE6FF600E146E560E156ECC
:1028F000166A14C0E6FFE66E16C0E6FFB80EE66E76
:10290000000EE66E7CEC2BF0176E110EE15E175098
:10291000B80EE66E000EE66EFE0EDBCFE6FFB9DE09
:10292000E552E552E552E552E7CFD9FF1200D9CF83
:10293000E6FFE1CFD9FFFA0EDB50040DF3CFE9FF3C
:10294000F4CFEAFF270EE926010EEA22EECFE6FFDA
:10295000EECFE6FFEECFE6FFEFCFE6FFFB0EDB505C
:10296000040DF3CFE9FFF4CFEAFF270EE926010EAD
:10297000EA22EECFE6FFEECFE6FFEECFE6FFEFCFA7
:10298000E6FFFC0EDB50040DF3CFE9FFF4CFEAFFC6
:10299000270EE926010EEA22EECFE6FFEECFE6FF94
:1029A000EECFE6FFEFCFE6FFFD0EDB50040DF3CFD9
:1029B000E9FFF4CFEAFF270EE926010EEA22EECF67
:1029C000E6FFEECFE6FFEECFE6FFEFCFE6FF4C0EE1
:1029D000146E560E156E166A14C0E6FFE66E16C02B
:1029E000E6FFB80EE66E000EE66E7CEC2BF0176E7E
:1029F000150EE15E1750B80EE66E000EE66EFE0E86
:102A0000DBCFE6FF46DEE552E552E552E552E7CF81
:102A1000D9FF1200D9CFE6FFE1CFD9FF150EE1268D
:102A2000FD0EDB50E76E010EE7CFDBFFFC0EDB5047
:102A3000E76E020EE7CFDBFFFB0EDB50E76E030E07
:102A4000E7CFDBFFFA0EDB50E76E040EE7CFDBFFCC
:102A5000DF6A040EDF5C01E3FAD0090E146ED95070
:102A6000010F156EDACF16F0DF500F011524E96E55
:102A7000000EDA20EA6EEF50145C0BE2D950010F21
:102A8000146EDF501424E96E000EDA20EA6EDFCFF8
:102A9000EFFFD950010F146EDACF15F0DF50142478
:102AA000E96E000EDA20EA6EEF50EA6AA00FE96ED6
:102AB000010EEA22EF50060A74E0D950010F1A6E97
:102AC000DACF1BF0DF501A24E96E000EDA20EA6E2E
:102AD000EF34EA6AFE0BEA36E96E0F0EE926010EC4
:102AE000EA22EECF16F0EFCF17F0186A196A640EDB
:102AF0000B6E0C6A0D6A0E6A16C006F017C007F05E
:102B000018C008F019C009F063EC2CF002C016F0F0
:102B100003C017F004C018F005C019F0FA0E0B6ED0
:102B2000030E0C6E0D6A0E6A02C006F003C007F0B9
:102B300004C008F005C009F06EEC2AF007C017F0D9
:102B400008C018F009C019F0D950050F146EDF50F5
:102B5000040D1450F324E96EDA50F420EA6E06C036
:102B6000EEFF17C0EEFF18C0EEFF19C0EEFFD95000
:102B7000050F186EDACF19F0DF50040D1850F3244A
:102B8000E96EDA50F420EA6EEECF14F0EECF15F0D5
:102B9000EECF16F0EFCF17F01734000E171844E6FB
:102BA0003AD0D950010F1A6EDACF1BF0DF501A2439
:102BB000E96E000EDA20EA6EEF34EA6AFE0BEA36BE
:102BC000E96E0F0EE926010EEA22EECFE6FFEFCF07
:102BD000E6FF02EC11F0E552E552F3CF16F0F4CF28
:102BE00017F0186A196A17AE02D018681968D95018
:102BF000050F146EDF50040D1450F324E96EDA5003
:102C0000F420EA6E16C0EEFF17C0EEFF18C0EEFF0C
:102C100019C0EEFF1AD0D880640E1454000E15545B
:102C2000000E1654000E175410E2D950050F146E02
:102C3000DF50040D1450F324E96EDA50F420EA6EEC
:102C4000640EEE6EEE6AEE6AEE6ADF2A02D7D950A3
:102C5000110FE96EDACFEAFFEECFE6FFEECFE6FF27
:102C6000EECFE6FFEFCFE6FFD9500D0FE96EDACFDA
:102C7000EAFFEECFE6FFEECFE6FFEECFE6FFEFCFC7
:102C8000E6FFD950090FE96EDACFEAFFEECFE6FF93
:102C9000EECFE6FFEECFE6FFEFCFE6FFD950050F10
:102CA000E96EDACFEAFFEECFE6FFEECFE6FFEECF3A
:102CB000E6FFEFCFE6FF4C0E146E560E156E166A49
:102CC00014C0E6FFE66E16C0E6FFB80EE66E000E14
:102CD000E66E7CEC2BF0176E150EE15E1750B80E09
:102CE000E66E000EE66EFE0EDBCFE6FFD2DCE552AE
:102CF000E552E552150EE15C02E2E16AE552E16E51
:102D0000E552E7CFD9FF1200D9CFE6FFE1CFD9FFD7
:102D1000050EE126010EF36E040EF3CFDBFFFD0E70
:102D2000DBCF17F00001800E171402E0FF0E01D078
:102D3000010E146E156A14BE156814C0DEFF15C0AE
:102D4000DDFFFC0EDBCF14F0FD0EDBCF15F01534EC
:102D500004E314503908FF0E15546DE2FC0EDBCF6E
:102D600016F0FD0EDBCF17F0D890175004E6580E82
:102D7000165C020E17585FE2DECF14F0DDCF15F0BF
:102D8000D950FC0FE96EFF0EDA20EA6E14C00DF088
:102D900015C00EF0EECF08F0EDCF09F0CFEC2AF021
:102DA00006C0EEFF07C0EDFF040EDBCFE6FFE66ACC
:102DB000FC0EDBCF14F0FD0EDBCF15F00A0E0D6E0E
:102DC0000E6A14C008F015C009F048EC2AF004C0DF
:102DD00014F005C015F004C0E6FF05C0E6FFFC0EC8
:102DE000DBCF16F0FD0EDBCF17F00A0E0D6E0E6A6C
:102DF00016C008F017C009F048EC2AF008C016F019
:102E000009C017F008C0E6FF09C0E6FF420E186EC1
:102E1000560E196E1A6A18C0E6FFE66E1AC0E6FF73
:102E2000B80EE66E000EE66E7CEC2BF01B6E0B0E01
:102E3000E15E1B5014D03C0E146E560E156E166AD1
:102E400014C0E6FFE66E16C0E6FFB80EE66E000E92
:102E5000E66E7CEC2BF0176E050EE15E1750D9CFB5
:102E6000E9FFDACFEAFFFF0EEE1844E1FF0EED189E
:102E700041E1020EDB6A030EDB6A020EDBCF14F0C7
:102E8000030EDBCF15F0D890155004E6080E145C45
:102E9000000E155813E2020EDBCFE9FF030EDBCF65
:102EA000EAFFB80EE926000EEA22EF50200806E1FC
:102EB000020EDB2A030EE1E3DB2ADFD7020EDBCFB3
:102EC00014F0030EDBCF15F0153414E21450000893
:102ED000000E15540FE2020EDBCFE9FF030EDBCF2D
:102EE000EAFFE906000EEA5AB80EE926000EEA22C9
:102EF0002D0EEF6EB80EE66E000EE66EFE0EDBCF08
:102F0000E6FF49EC13F0E552E552E552050EE15CAF
:102F100002E2E16AE552E16EE552E7CFD9FF120025
:102F2000D9CFE6FFE1CFD9FF070EE1262E0E146EB2
:102F3000560E156E166A040E14C0DBFF050E15C082
:102F4000DBFF060E16C0DBFF100EF36E020EF3CF92
:102F5000DBFF030EDB6A040EDBCFF6FF050EDBCFD3
:102F6000F7FF060EDBCFF8FF0800F5501CE0020E5D
:102F7000DBCF14F0030EDBCF15F015340AE214504A
:102F80000008000E155405E2020EDB06030E01E2F6
:102F9000DB06D950040FE96EDACFEAFFEE2A000E05
:102FA000EE22EE22D8D7D950020FE96EDACFEAFF2F
:102FB000020E0D6E0E6AEECF08F0EDCF09F048EC70
:102FC0002AF008C0EEFF09C0EDFFDE6ADD6ADECF41
:102FD00014F0DDCF15F0020EDBCF16F0030EDBCFC1
:102FE00017F015501718E8AE02D0173404D0165059
:102FF000145C175015580FE2DECFE9FFDDCFEAFF72
:10300000B80EE926000EEA22200EEF6EDF2A010E2E
:10301000DEE3DB2ADCD72E0E146E560E156E166A12
:10302000040E14C0DBFF050E15C0DBFF060E16C034
:10303000DBFF040EDBCFF6FF050EDBCFF7FF060E3E
:10304000DBCFF8FF0800F5502AE0D950040FE96EF5
:10305000DACFEAFFEFCFF6FFEE2AEFCFF7FF000E51
:10306000EE22EFCFF8FFEE220800F550E66EDFCF3C
:10307000E9FFDF2A010EDBCFEAFF01E3DB2AB80E0E
:10308000E926000EEA22E552E750EF6ED9CFE9FFBC
:10309000DACFEAFF100EEE18CCE1ED50CAE1DECF38
:1030A000E9FFDDCFEAFFB80EE926000EEA22EF6A5B
:1030B000B80EE66E000EE66E010EE66E49EC13F0F9
:1030C000E552E552E552640EE66EE66A04EC0AF05B
:1030D000E552E552250E146E560E156E166A040E54
:1030E00014C0DBFF050E15C0DBFF060E16C0DBFFAC
:1030F000100EF36E020EF3CFDBFF030EDB6A040E3D
:10310000DBCFF6FF050EDBCFF7FF060EDBCFF8FFB8
:103110000800F5501CE0020EDBCF14F0030EDBCFED
:1031200015F015340AE214500008000E155405E29B
:10313000020EDB06030E01E2DB06D950040FE96E36
:10314000DACFEAFFEE2A000EEE22EE22D8D7D950CF
:10315000020FE96EDACFEAFF020E0D6E0E6AEECFB5
:1031600008F0EDCF09F048EC2AF008C0EEFF09C0E6
:10317000EDFFDE6ADD6ADECF14F0DDCF15F0020E62
:10318000DBCF16F0030EDBCF17F015501718E8AEA3
:1031900002D0173404D01650145C175015580FE2A3
:1031A000DECFE9FFDDCFEAFFB80EE926000EEA2206
:1031B000200EEF6EDF2A010EDEE3DB2ADCD7250EC0
:1031C000146E560E156E166A040E14C0DBFF050E43
:1031D00015C0DBFF060E16C0DBFF040EDBCFF6FFCB
:1031E000050EDBCFF7FF060EDBCFF8FF0800F5502A
:1031F0002AE0D950040FE96EDACFEAFFEFCFF6FFED
:10320000EE2AEFCFF7FF000EEE22EFCFF8FFEE220F
:103210000800F550E66EDFCFE9FFDF2A010EDBCFB5
:10322000EAFF01E3DB2AB80EE926000EEA22E552A6
:10323000E750EF6ED9CFE9FFDACFEAFF100EEE18B4
:10324000CCE1ED50CAE1DECFE9FFDDCFEAFFB80EF9
:10325000E926000EEA22EF6AB80EE66E000EE66E70
:10326000020EE66E49EC13F0E552E552E552070E08
:10327000E15C02E2E16AE552E16EE552E7CFD9FF97
:0232800012003A
:0E3282009D9A9E9A040EAC6E800EAB6EB886BE
:10329000B06A440EAF6E240EAC6E900EAB6E0101A0
:1032A000F76B200EF75D09E2F751EA6AD40FE96E79
:1032B000010EEA22EF6AF72BF4D7F86BF8C1F7F1A9
:1032C000FA6B9F9A9E9A9D8A1200D9CFE6FFE1CFB2
:1032D000D9FFACA2FED7FE0EDB50AD6EE552E7CFB4
:1032E000D9FF1200D9CFE6FFE1CFD9FFFD0EDBCF2A
:1032F000E9FFFE0EDBCFEAFFEF500EE0FD0EDBCF65
:10330000E9FFDB2AFE0EDBCFEAFF01E3DB2AEF5009
:10331000E66EDBDFE552EAD7E552E7CFD9FF1200D0
:10332000D9CFE6FFE1CFD9FFFC0EDBCFF6FFFD0ED4
:10333000DBCFF7FFFE0EDBCFF8FF0800F55016E0FD
:10334000D950FC0FE96EFF0EDA20EA6EEFCFF6FFE0
:10335000EE2AEFCFF7FF000EEE22EFCFF8FFEE22BE
:103360000800F550E66EB1DFE552DED7E552E7CF53
:10337000D9FF1200D9CFE6FFE1CFD9FFE652010114
:10338000F851EA6AD40FE96E010EEA22EFCFDFFFAF
:10339000200E146EF82BF851D880145401E3F86B0A
:1033A000DF50E552E552E7CFD9FF12000101F75196
:1033B000F85D01E1000C010CD9CFE6FFE1CFD9FFA8
:1033C0001A0EE126190EDB6A0101F56BF66B01019D
:1033D000640ED880F555000EF6552DE3E7DF0009A1
:1033E000F6E0C8DFE76E180EE7CFDBFFDBCF14F0A7
:1033F000200EE76E1418E8AE02D0E73402D0E75092
:10340000145C19E3170E146E190EDB50145C13E3F1
:10341000D9CF14F0DACF15F0190EDBCFF3FFDB2A8A
:10342000F3500F01D924E96E000EDA20EA6E180E6F
:10343000DBCFEFFFC9D7D9CF14F0DACF15F0190ED3
:10344000DB500F01D924E96E000EDA20EA6EEF6A34
:10345000190EDB5009E0E66AD9CFE6FFDACFE6FFC6
:103460000DD8E552E552E5521A0EE15C02E2E16A3E
:10347000E552E16EE552E7CFD9FF1200D9CFE6FF62
:10348000E1CFD9FF060EE126FD0EDBCFE9FFFE0EF0
:10349000DBCFEAFFEF50520A01E165D1040A01E1F6
:1034A00060D1140A01E14ED10F0A01E1FCD0020AF9
:1034B00001E1CAD0030A01E198D0050A52E03A0AB4
:1034C0004FE0200A01E065D1640E0101CC6FCD6BA5
:1034D000010EE76EFD0EDBCFE9FFFE0EDBCFEAFF4C
:1034E000E750E926000EEA22EF50310A1CE0010AFB
:1034F00001E031D0030EE76EFD0EDBCFE9FFFE0EDB
:10350000DBCFEAFFE750E926000EEA22EF50310850
:1035100005E151D90101AA81899E04D00101AA9136
:103520000101AB6B18D0030EE76EFD0EDBCFE9FF98
:10353000FE0EDBCFEAFFE750E926000EEA22EF504D
:10354000310802E1010E01D0000E0101E8B0AA83AA
:10355000E8A0AA9300D0010E01010D6F0E6B21D1DE
:1035600020D1010EE76EFD0EDBCFE9FFFE0EDBCFB3
:10357000EAFFE750E926000EEA22EF50440822E174
:10358000030EE76EFD0EDBCFE9FFFE0EDBCFEAFF99
:10359000E750E926000EEA22EFCF14F0300E145C5B
:1035A00011E3390E156E030EE76EFD0EDBCFE9FF5A
:1035B000FE0EDBCFEAFFE750E926000EEA22EF50CD
:1035C000155C01E2EED0030EE76EFD0EDBCFE9FFE6
:1035D000FE0EDBCFEAFFE750E926000EEA22EF50AD
:1035E000D00F0101AB6FE7D8DCD0010EE76EFD0E06
:1035F000DBCFE9FFFE0EDBCFEAFFE750E926000E46
:10360000EA22EF50D00FDF6E030EE76EFD0EDBCF28
:10361000E9FFFE0EDBCFEAFFE750E926000EEA22C3
:10362000EF50D00FE76E010EE7CFDBFF0101AB518A
:103630000AE1010EDBCFE6FFDFCFE6FFF2EC0DF093
:10364000E552E55200D0ADD0010EE76EFD0EDBCFA6
:10365000E9FFFE0EDBCFEAFFE750E926000EEA2283
:10366000EF50D00FDF6E030EE76EFD0EDBCFE9FFEC
:10367000FE0EDBCFEAFFE750E926000EEA22EF500C
:10368000D00FE76E010EE7CFDBFF0101AB510AE17E
:10369000010EDBCFE6FFDFCFE6FF3EEC0DF0E5529B
:1036A000E55200D07ED0030EE66E020EE76EFD0EF0
:1036B000DBCF14F0FE0EDBCF15F0E7501426000E22
:1036C000152214C0E6FF15C0E6FF93DAE552E55275
:1036D000E552020EF3CFDBFF030EF4CFDBFF030E48
:1036E000E66E060EE76EFD0EDBCF14F0FE0EDBCFAE
:1036F00015F0E7501426000E152214C0E6FF15C081
:10370000E6FF77DAE552E552E552040EF3CFDBFF30
:10371000050EF4CFDBFF0101AB5113E1040EDBCF4B
:10372000E6FF050EDBCFE6FF020EDBCFE6FF030E62
:10373000DBCFE6FF2EEC0AF0E552E552E552E5520A
:1037400000D02FD0070E01010D6F0E6BFD0EDBCFE9
:10375000E6FFFE0EDBCFE6FFECEC26F0E552E5528D
:1037600020D071D81ED0FD0EDBCFE6FFFE0EDBCFE2
:10377000E6FF090EE66E49EC13F0E552E552E5521C
:103780000A0EE66EE66A04EC0AF0E552E552FF0026
:1037900008D0FC0EDB5004E1150EE66E96DDE55216
:1037A00000D0060EE15C02E2E16AE552E16EE5520C
:1037B000E7CFD9FF1200D9CFE6FFE1CFD9FFE6521C
:1037C000DE0E146E560E156E166A14C0E6FFE66E17
:1037D00016C0E6FFA5DDE552E552E5520101AB5109
:1037E00011E1DF6A0A0EDF5C0DE2DF50EA6AA00F2A
:1037F000E96E010EEA22EF50300FE66E66DDE5520B
:10380000DF2AF0D7D50E146E560E156E166A14C048
:10381000E6FFE66E16C0E6FF83DDE552E552E552AF
:10382000D20E146E560E156E166A14C0E6FFE66EC2
:1038300016C0E6FF75DDE552E552E552E552E55268
:10384000E7CFD9FF1200D9CFE6FFE1CFD9FF200E95
:10385000E1261DEC26F0C40E146E560E156E166A87
:1038600014C0E6FFE66E16C0E6FF5ADDE552E552EB
:10387000E552200EE66E29DDE552BB0E146E560EA3
:10388000156E166A14C0E6FFE66E16C0E6FF48DD48
:10389000E552E552E552FBC0E6FFFCC0E6FFF9C089
:1038A000E6FFFAC0E6FFF7C0E6FFF8C0E6FFA60EA7
:1038B000146E560E156E166A14C0E6FFE66E16C03C
:1038C000E6FFD9CFE6FFDACFE6FF7CEC2BF0176EF0
:1038D0000B0EE15E1750D9CFE6FFDACFE6FF02DD2F
:1038E000E552E552200EE15C02E2E16AE552E16E4A
:1038F000E552E7CFD9FF1200D9CFE6FFE1CFD9FFDC
:10390000160EE1260101AB5101E07DD0020EDB6A0B
:103910000A0EF36E020EDBCFF4FFF350F45C62E2AA
:10392000020EDB50EA6AA00FE96E010EEA22EF50A8
:103930000AE0020EDB50EA6AA00FE96E010EEA22ED
:10394000EF5002080FE1020EDBCFE6FFAAEC0DF00C
:10395000E552000903E1146A156A33D01468030EB6
:10396000156E2FD0020EDB50EA6AA00FE96E010E31
:10397000EA22EF50060817E1020EEA6ADB34FE0B7A
:10398000EA36E96E0F0EE926010EEA22EECFE6FFD7
:10399000EFCFE6FF02EC11F0E552E552F3CF14F061
:1039A000F4CF15F00ED0020EEA6ADB34FE0BEA36D5
:1039B000E96E0F0EE926010EEA22EECF14F0EFCFEA
:1039C00015F0020EEA6ADB34FE0BEA36E96EAC0E45
:1039D000E926010EEA2214C0EEFF15C0EDFF020E2B
:1039E000DB2A96D7E66A22EC0EF0E552E76E140E5B
:1039F000E7CFDBFF010EE66E22EC0EF0E552E76E3C
:103A0000150EE7CFDBFF020EDB6A0A0EF36E020E25
:103A1000DBCFF4FFF350F45C34E2020EEA6ADB34ED
:103A2000FE0BEA36E96EAC0EE926010EEA22EECF75
:103A3000E6FFEFCFE6FF020EDB28E66EE66A9B0E9E
:103A4000146E560E156E166A14C0E6FFE66E16C0AA
:103A5000E6FFD950030FE66E000EDA20E66E7CEC2E
:103A60002BF0176E090EE15E1750D950030FE66E6A
:103A7000000EDA20E66E36DCE552E552020EDB2A55
:103A8000C4D7020EDB6AD950030F146E020EDBCFCF
:103A9000F3FFDB2AF3500F011424E96E000EDA2045
:103AA000EA6E4C0EEF6ED950030F146E020EDBCF90
:103AB000F3FFDB2AF3501424E96E000EDA20EA6EDD
:103AC000450EEF6ED950030F146E020EDBCFF3FFDD
:103AD000DB2AF3501424E96E000EDA20EA6E440E5D
:103AE000EF6ED950030F146E020EDBCFF3FFDB2A0B
:103AF000F3501424E96E000EDA20EA6E3D0EEF6EEC
:103B0000140EDB50300FE66ED950030F146E020E08
:103B1000DBCFF3FFDB2AF3501424E96E000EDA202A
:103B2000EA6EE552E750EF6E150EDB50300FE66E91
:103B3000D950030F146E020EDBCFF3FFDB2AF350D4
:103B40001424E96E000EDA20EA6EE552E750EF6EBB
:103B5000D950030F146EDACF15F0020EDB50142487
:103B6000E96E000EDA20EA6EEF6AD950030FE66EB6
:103B7000000EDA20E66E72EC19F0E552E552D20E34
:103B8000146E560E156E166A14C0E6FFE66E16C069
:103B9000E6FF90EC19F0E552E552E5528B0E146EFB
:103BA000560E156E166A14C0E6FFE66E16C0E6FFE6
:103BB000010EE66EE5EC12F0E552E552E552E552F3
:103BC000030EE66E020EE66E010EE66EE66A020E69
:103BD000E66E0AEC15F0146E050EE15E1450160E3A
:103BE000E15C02E2E16AE552E16EE552E7CFD9FF1E
:103BF0001200D9CFE6FFE1CFD9FF060EE126010E74
:103C0000F36E040EF3CFDBFF050EDB6A020EDB6AF8
:103C1000030EDB6ADF6AFC0EDB50DF5C43E2FD0E65
:103C2000DBCFE9FFDB2AFE0EDBCFEAFF01E3DB2A75
:103C3000010EEFCFDBFFDB5035E0010EDB502D082E
:103C400005E1040EDB68050EDB682AD0300EF36E4A
:103C5000010EDBCFF4FFF350F45C22E3390E146E57
:103C6000010EDB50145C1CE3D950020FE96EDACF71
:103C7000EAFF0A0EEC02F3CFEDFFEF02F3CFEEFF07
:103C8000F450ED26010EDB50D00F146E156AD9509A
:103C9000020FE96EDACFEAFF1450EE261550ED223E
:103CA000DF2AB9D7040EDBCF14F0050EDBCF15F0F9
:103CB000D950020FE96EDACFEAFF14C00DF015C03B
:103CC0000EF0EECF08F0EDCF09F0CFEC2AF006C0F1
:103CD000EEFF07C0EDFF020EDBCF14F0030EDBCFCB
:103CE00015F014C0F3FF15C0F4FF060EE15C02E20C
:103CF000E16AE552E16EE552E7CFD9FF1200D9CF74
:103D0000E6FFE1CFD9FF060EE126DE6ADE6ADE6A53
:103D1000DD6ADD52DD52040EDB6AFC0EDB50F36E11
:103D2000040EDBCFF4FFF350F45C57E2FD0EDBCF63
:103D3000E9FFDB2AFE0EDBCFEAFF01E3DB2A050EFB
:103D4000EFCFDBFF300EF36E050EDBCFF4FFF35049
:103D5000F45C43E3390E146E050EDB50145C3DE356
:103D6000300E146E050EDBCFE7FF1450E75E050E34
:103D7000E7CFDBFFD9CFE9FFDACFEAFF0A0E0B6E00
:103D80000C6A0D6A0E6AEECF06F0EECF07F0EECFAA
:103D900008F0EFCF09F063EC2CF005C0EDFF04C094
:103DA000EDFF03C0EDFF02C0EFFF050EDBCF14F007
:103DB000156A166A176A14AE03D015681668176874
:103DC0001450DE261550DE221650DE221750DD225A
:103DD000DD52DD52040EDB2AA0D7DECF06F0DECFA7
:103DE00007F0DECF08F0DDCF09F0DD52DD52060E20
:103DF000E15C02E2E16AE552E16EE552E7CFD9FF0C
:103E00001200D9CFE6FFE1CFD9FF040EE126DE6A2A
:103E1000DD6A020EDB6AFC0EDB50F36E020EDBCFB6
:103E2000F4FFF350F45C4FE2FD0EDBCFE9FFDB2A39
:103E3000FE0EDBCFEAFF01E3DB2A030EEFCFDBFF51
:103E4000300E146E030EDB50D880145408E3030EBA
:103E5000DB50390804E3030EDB50D00F1ED0410EB7
:103E6000146E030EDB50D880145408E3030EDB50AD
:103E7000460804E3030EDB50BF0F0ED0610E146E34
:103E8000030EDB50D88014541EE3030EDB5066088B
:103E90001AE3030EDB509F0F0A0FE76E030EE7CF06
:103EA000DBFFD9CFE9FFDACFEAFF040ED890EE3678
:103EB000ED36E806FBE1030EDB50DE26000EDD22C8
:103EC000020EDB2AA8D7DECF14F0DDCF15F014C028
:103ED000F3FF15C0F4FF040EE15C02E2E16AE55273
:103EE000E16EE552E7CFD9FF1200D9CFE6FFE1CF6F
:103EF000D9FF300EF36EFE0EDBCFF4FFF350F45C0F
:103F000008E3390E146EFE0EDB50145C02E3000E63
:103F100001D0010E000902E0000E01D0010EE552B1
:103F2000E7CFD9FF1200D9CFE6FFE1CFD9FF300E9E
:103F3000146EFE0EDB50D880145404E3FE0EDB50EA
:103F4000390816E2410E146EFE0EDB50D880145470
:103F500004E3FE0EDB5046080BE2610E146EFE0E0B
:103F6000DB50D880145406E3FE0EDB50660802E3F3
:0E3F7000010E01D0000EE552E7CFD9FF12007E
:023F7E00FBEC5A
:103F800024F0FB0EDBCFF3FFDB06F35000090AE061
:103F900049EC25F0FA0EB4EC25F0F3E1151CF1E143
:103FA000010E01D0000E2AEF25F0FBEC24F03B0EB1
:103FB000E12402E3E168E652E16E010EDB6A020EE3
:103FC000DB6AF90EDBCFF6FFFA0EDBCFF7FFFB0E55
:103FD000DBCFF8FF0800F550DF6EDF5002E14EEF57
:103FE00024F0250EDF5C02E041EF24F0030EDB6AD3
:103FF000040EDB6A050EDB6A060EDB6A070EDB6A5F
:1040000063EC24F02D0EDF5C0CE02B0EDF5C09E08E
:10401000200EDF5C06E0230EDF5C03E0300EDF5C89
:104020001AE1DF50300A14E0130A0FE0030A0AE035
:104030000B0A05E0060AE4E1030EDB80E1D7030E7C
:10404000DB82DED7030EDB84DBD7030EDB86D8D71B
:10405000030EDB88D5D72A0EDF5C1BE15FEC24F072
:10406000ADEC24F010E0030EDB8008680968130E45
:10407000DBCF0DF0140EDBCF0EF0A2EC2AF0040E15
:1040800006C0DBFF03D0130E96EC24F063EC24F0A3
:104090000BD0090EDB6A04EC25F003E078EC25F088
:1040A000FAD7090E96EC24F0030EDBB0DB982E0E47
:1040B000DF5C1BE163EC24F02A0EDF5C0BE15FECBC
:1040C00024F0ADEC24F003E1130EE8EC24F063ECF3
:1040D00024F00BD0090EDB6A04EC25F003E078EC49
:1040E00025F0FAD7090EE8EC24F0680EDF5C07E152
:1040F00063EC24F0680EDF5C1DE1030E18D0740E33
:10410000DF5C17E07A0EDF5C14E0480EDF5C06E04F
:10411000540EDF5C03E05A0EDF5C02E1020E07D0B2
:104120006C0EDF5C03E06A0EDF5C04E1010E3BEC29
:1041300025F0C9DBDF506E0A01E17FD31E0A01E1E1
:1041400092D1200A01E18FD13F0A01E149D11A0A37
:1041500001E146D10D0A01E143D1200A01E140D13C
:104160003A0A01E13DD1200A01E13AD1260A01E1F2
:1041700035D10D0A01E132D11A0A01E1D9D0200A64
:104180004AE0300A1FE0460A0EE0250A01E083D328
:10419000D950F90FE96EFF0EDA20EA6E010EEE5EDD
:1041A000000EEE5AEE5A49EC25F0250EE66E95DB30
:1041B00003E1151C01E169D345EC25F001E26BD365
:1041C000DB2A69D3080EDB6A040EDB50010806E225
:1041D000040EDB040DEC25F0DB508BDB080EDB500E
:1041E00009E0030EDB50010B05E172DB01E04DD36A
:1041F000080EDB6A64DBEFCFDFFFBDEC25F003E1E7
:10420000151C01E142D345EC25F001E3DB2A60DB1C
:1042100001E141D33AD3070EDB5002080FE189ECEC
:1042200025F0030E50EC25F00E0EEECFDBFF0F0E47
:10423000EECFDBFF100EEECFDBFF20D0F70EDBCF93
:1042400017F0F80EDBCF18F0020E175E000E185AAA
:10425000F70E17C0DBFFF80E18C0DBFF17C0E9FF31
:1042600018C0EAFF40EC25F0166A0E0E14C0DBFF02
:104270000F0E15C0DBFF100E16C0DBFF0E0EDBCFDE
:10428000E6FF0F0EDBCFE6FF100EDBCFE6FFA9EC5B
:104290002CF0E552E552E552130E07C0DBFF140E79
:1042A00008C0DBFF060EDB5005E0130E84EC25F0A2
:1042B00001E26ADBA8EC25F002E2130E37DB6BECBF
:1042C00025F006E0040E84EC25F002E2050E2EDB5C
:1042D000030EDBB005D0FCDA01E0D7D2080EDB6AB2
:1042E000090EDB6A0E0EDBCFF6FF0F0EDBCFF7FFFA
:1042F000100EDBCFF8FF0800F550DF6EDF5014E042
:10430000AEEC25F011E2BDEC25F003E1151C01E156
:10431000BCD2BBDB01E3DB2A090EDB2AD9500E0F2E
:10432000E96E000ECBDBE7D7D3DA01E1B4D2ADD230
:10433000C6DA110EEECFDBFF120EEDCFDBFF110E52
:10434000DBCFE6FF120EDBCFE6FF9BEC2CF0E55255
:10435000E552130EF3CFDBFF140EF4CFDBFF060E96
:10436000DB5004E0130ED0DB01E20EDBA8EC25F0FD
:1043700002E2130EDBDAAFDB05E0040EC5DB02E27E
:10438000050ED4DA030EDBB005D0A2DA01E07DD24F
:10439000080EDB6A090EDB6A110EDBCFE9FF120E95
:1043A000DBCFEAFFEFCFDFFFDF5014E0D7DB12E215
:1043B000E4DB03E1151C01E168D267DB01E3DB2AE2
:1043C000090EDB2A110EDB2ADBCFE9FF120EE8E330
:1043D000DB2AE6D77DDA01E15ED257D2030EDB8E0F
:1043E000070EDB0410E195DB040E5ADB0A0EEECF5C
:1043F000DBFF0B0EEECFDBFF0C0EEECFDBFF0D0E67
:10440000EECFDBFF6CD0070EDB5003082CE1030E70
:10441000DBAE0DD0B2DA020E76DAEFCF14F0156A09
:10442000166A176A14AE39D01568166835D0F70EBB
:10443000DBCF15F0F80EDBCF16F0020E155E000E86
:10444000165AF70E15C0DBFFF80E16C0DBFF15C0BD
:10445000E9FF16C0EAFFEFCF14F00A0E14C0DBFF2D
:104460000B0EDB6A38D0070EDB50020809E1030EA1
:10447000DBAE04D059DB16AE10D00ED055DB0DD01C
:10448000030EDBAE12D079DA020E3DDAF9DA166AE3
:10449000176A15AE02D016681768E2DA0C0E16C05D
:1044A000DBFF0D0E17C0DBFF1AD0F70EDBCF16F0C7
:1044B000F80EDBCF17F0020E165E000E175AF70E3D
:1044C00016C0DBFFF80E17C0DBFF16C0E9FF17C0F0
:1044D000EAFFD6DAC5DA0C0EDB6A0D0EDB6A060ED1
:1044E000DB5005E1010EF36E050EF3CFDBFF150E79
:1044F000DB6A160EDB6AD950370F146E000EDA2015
:10450000156E390E14C0DBFF3A0E15C0DBFF380EF6
:10451000DB6A080EDB6A0A0EAEDADF50780A12E0B8
:10452000200A10E0280A0CE0200A0AE03F0A06E010
:104530000D0A02E0200A08E1020E05D0080E03D0A1
:10454000080EDF26100E97DA030EDBBE02D0DB92D8
:10455000DB94DB50800B24E08ADAD890030EEB501A
:10456000000A08E6000EEE5C000EEE58000EEE5853
:10457000000EEE5815E213DA0B680C680D680E6831
:1045800063EC2CF00A0E02C0DBFF0B0E03C0DBFF56
:104590000C0E04C0DBFF0D0E05C0DBFF2D0E08D096
:1045A000030EDBA202D02B0E03D0DBA408D0200E1A
:1045B000F36E170EF3CFDBFF150EDB2A02D0170EBA
:1045C000DB6A050EDB5003E1B7D901E189D0BA0EF1
:1045D000146E5A0E156E000E166E070EDBCF17F016
:1045E000186A196A1A6A17C00BF018C00CF019C0C3
:1045F0000DF01AC00EF0D3D9CEEC2CF014500224DA
:10460000F36E15500320F46E16500420F86EF4CFAC
:10461000F7FFF3CFF6FF0800090EF5CFDBFF580ECA
:10462000DF5C0FE1610EF36E090E7BD90AE3200E09
:10463000146E090EDBCFE7FF1450E75E090EE7CFDB
:10464000DBFF070EDBCF14F0156A166A176A0FDA64
:1046500014C00BF015C00CF016C00DF017C00EF012
:10466000EECF06F0EECF07F0EECF08F0EFCF09F077
:10467000CEEC2CF009C0EDFF08C0EDFF07C0EDFF48
:1046800006C0EFFF390EDBCFE9FFDB063A0EDBCFCA
:10469000EAFF01E2DB06090EDBCFEFFF150EDB2A96
:1046A0004BD995E1030EDBA61DD06F0EDF5C06E152
:1046B000C1D918E3150EDB285BDA14D0780EDF5C65
:1046C00009E0580EDF5C06E0620EDF5C03E0420E9C
:1046D000DF5C08E1020EF36E160EF3CFDBFF02D0B3
:1046E000150EDB6A030EDB50100B0EE0040EDBCF61
:1046F00014F0050EDB50D880145406E2060EDB5091
:1047000003E1040EDB5034DA95D90AE2050EDBCF63
:10471000E7FF150EDB50E75E050EE7CFDBFF02D0AB
:10472000050EDB6A040EDBCF14F0160E45D9D880D7
:10473000145414E2160EDBCFE6FF150EDBCFE6FFB6
:10474000040EDBCFE6FF050EDB50E552E75CE552D9
:10475000D880E754E552D880E7545FD9030EDB5088
:10476000010B0BE1080EDB5008E0B2D801E08DD060
:10477000080EDB50BED8080EDB6A170EDB5007E0D0
:1047800088D9170EF1D903E1151C01E17ED0160E70
:10479000DB5016E07ED9300EE66E9FD802E1151C84
:1047A00074E077D9DFCFE6FF21EC2CF0E552E5523B
:1047B000E552F4CF15F00001F31C02E1151C65E091
:1047C000050EDBCF14F0160EDB50D880145409E22E
:1047D000050EDBCFE7FF160EDB50E75E050EE7CFD9
:1047E000DBFF300EE66E050ECBD94FE1390EDB2A2A
:1047F000DBCFE9FF3A0E01E3DB2ADBCFEAFF090E4C
:10480000EFCFDBFFDB500EE044D9090EADD902E15A
:10481000151C3BE0390EDB2ADBCFE9FF3A0EEDE356
:10482000DB2AEBD755D831E1160EDBCFE6FF080EB9
:10483000C3D8E552E7245DD82ED0070EDB50030A1B
:104840001CE0010A14E0030A07E07BD9DBCFEEFF8E
:10485000020EDBCFEDFF1FD0F5D8196A17AE02D0DC
:10486000186819682CD8BCD819C0EEFF14D0EAD843
:1048700017BE186824D8B4D80ED063D9DBCFEFFFA9
:104880000AD07BD905E1151C03E1F368F46810D068
:10489000FCD801E3DB2A79D9EAEF1FF0010EDBCF68
:1048A00014F0020EDBCF15F014C0F3FF15C0F4FFB7
:1048B0003B0EE15C02E2E16AE552E16ECBD029D920
:1048C000020E50EF25F061D90800F550DF6E12009E
:1048D000200EE66E080EC0EF25F021EC2CF0E5521C
:1048E000E552E552F3CF14F0F4CF15F00001F31CBC
:1048F0001200146E156AD950010F4DD91450EE26CE
:104900001550ED221200185E000E195AF70E18C04D
:10491000DBFFF80E19C0DBFF18C0E9FF19C0EAFF82
:104920001200DBCFF4FFF350F45C1200DB50E76EB3
:10493000040EE7CFDBFF12000A0EDBCF14F00B0EE4
:10494000DBCF15F00C0EDBCF16F00D0EDBCF17F022
:1049500014501510161017101200130EEECFDBFFB7
:10496000140EEDCFDBFF130EDBCF14F0140EDBCFF4
:1049700015F00001800E15141200F70EDBCF18F0B1
:10498000F80EDBCF19F01200050EDB50E66ED950A1
:10499000130F01D9E552E750EE6EED6A12000A0ED0
:1049A000DBCF06F00B0EDBCF07F00C0EDBCF08F0F1
:1049B0000D0EDBCF09F01200DBCFE6FF150EDBCFCB
:1049C000E6FF050EDB50E552E724E552E72412002E
:1049D000DB50CED8010EF36E060EF3CFDBFF1200D4
:1049E000EE50EFCFEAFFE96E16C0EEFF17C0EEFF04
:1049F00018C0EEFF1200D9CFE6FFDACFE6FFE1CF15
:104A0000D9FFE2CFDAFF1200DFCFE6FFE66A08EC5B
:104A10002DF0E552E552F3501200E76E080EE7CF95
:104A2000DBFF1200EECF14F0EECF15F0EFCF16F053
:104A3000176A1200050EDBCF14F0150EDB50D8807C
:104A400014541200010EDBCF16F0020EDBCF17F06C
:104A5000186A1200E552E5CFDAFFE7CFD9FF12005E
:104A60000A0E14C0DBFF0B0E15C0DBFF1200D9507D
:104A70000A0FCBEF25F0F36E070EF3CFDBFF12002A
:104A8000EECF14F0EFCF15F01200010EDB2A020E6C
:104A90001200FC0EDBCFE6FFFD0EDBCFE6FF1200BF
:104AA000145E000E155AF70E14C0DBFFF80E15C089
:104AB000DBFF14C0E9FF15C0EAFF1200DA20EA6E3E
:104AC000EF2AEECFF6FF000EEF22EECFF7FFEF2238
:104AD000EECFF8FF1200040EDBCFE6FF130EDB5023
:104AE000E552E75C9ADFDB5004DF060EDB50120074
:104AF000090EDB500A0DF350DF24D00FE76E090ECC
:104B0000E7CFDBFF63EF24F0DB50F36E050E91EF90
:104B100024F0F70EDBCF14F0F80EDBCF15F0120007
:104B2000DFCFE6FF6DEF24F028DF030EECDE12EF9F
:104B300025F0BFEC1FF0E552E552E552E5520009C1
:104B40001200BDDEEE50EFCFEAFFE96E010E12005B
:104B5000130EDB50F36E040E91EF24F0040EDB50C5
:104B6000F36E090E91EF24F0DBCFE6FF6DEF24F03A
:104B7000E76E050EE7CFDBFF12008BDF90EF25F02D
:104B8000DBCFE6FF86DF99EF25F0D950F90FE96E0C
:104B9000FF0E5EEF25F0E96E000EDA20EA6E1200DD
:104BA000D9CFE6FFE1CFD9FFE652FD0EDB50A96E6B
:104BB000A69EA69CA680A850DF6EDF50E552E55267
:104BC000E7CFD9FF1200D9CFE6FFE1CFD9FF020E20
:104BD000E126FD0EDB50A96EFC0EDB50A86EA69EF2
:104BE000A69CA684F29E550EA76EAA0EA76EA6825C
:104BF000DE6ADD6AA6A215D0DFCF14F0DF2A010E2F
:104C0000DBCF15F001E3DB2A166A1634000E161806
:104C100007E6D880E80E1454FD0E1554000E165405
:104C2000E9E2F28EA694020EE15C02E2E16AE5524C
:104C3000E16EE552E7CFD9FF1200D9CFE6FFE1CF11
:104C4000D9FF020EE126000EE66EE66AA9DFE55204
:104C5000E552DF6E010EE66EE66AA2DFE552E5522E
:104C6000E76E010EE7CFDBFFDECF14F0DDCF15F0EE
:104C7000F00ED8801454000E155402E2DE6ADD6A8C
:104C8000DECFF7F0DDCFF8F0020EE66EE66A88DFE1
:104C9000E552E552DF6E030EE66EE66A81DFE5520D
:104CA000E552E76E010EE7CFDBFFDECF14F0DDCF7C
:104CB00015F0F00ED8801454000E155402E2DE6A8E
:104CC000DD6ADECFF9F0DDCFFAF0040EE66EE66ABB
:104CD00067DFE552E552DF6E050EE66EE66A60DFDD
:104CE000E552E552E76E010EE7CFDBFFDECF14F0B1
:104CF000DDCF15F0140ED8801454000E155403E2C5
:104D00000A0EDE6EDD6ADECFFBF0DDCFFCF0020EB8
:104D1000E15C02E2E16AE552E16EE552E7CFD9FFDC
:104D20001200D9CFE6FFE1CFD9FF020EE126F7C08E
:104D3000DEFFF8C0DDFFDFCFE6FF000EE66EE66ABD
:104D400042DFE552E552E552010EDBCFE6FFE66EAB
:104D5000E66A39DFE552E552E552F9C0DEFFFAC0F6
:104D6000DDFFDFCFE6FF020EE66EE66A2CDFE552DE
:104D7000E552E552010EDBCFE6FF030EE66EE66A72
:104D800022DFE552E552E552FBC0DEFFFCC0DDFF4D
:104D9000DFCFE6FF040EE66EE66A15DFE552E55268
:104DA000E552010EDBCFE6FF050EE66EE66A0BDF8D
:104DB000E552E552E552320EE66EE66A04EC0AF080
:104DC000E552E552020EE15C02E2E16AE552E16E73
:104DD000E552E7CFD9FF1200D9CFE6FFE1CFD9FFE7
:104DE0001E0EE126020EE76EFD0EDBCFE9FFFE0E82
:104DF000DBCFEAFFE750E926000EEA22EF50E66E2D
:104E000075EC1FF0E552000901E1DCD0060EE76EFB
:104E1000FD0EDBCFE9FFFE0EDBCFEAFFE750E92610
:104E2000000EEA22EF50E66E75EC1FF0E552000925
:104E300001E1C8D0030EE66E020EE76EFD0EDBCF79
:104E400014F0FE0EDBCF15F0E7501426000E1522ED
:104E500014C0E6FF15C0E6FFF9EC1DF0E552E5527F
:104E6000E552F3CFDEFFF4CFDDFFDECF14F0DDCF70
:104E700015F0F00ED8801454000E155403E2F00E15
:104E8000DE6EDD6A030EE66E060EE76EFD0EDBCF0C
:104E900014F0FE0EDBCF15F0E7501426000E15229D
:104EA00014C0E6FF15C0E6FFF9EC1DF0E552E5522F
:104EB000E552020EF3CFDBFF030EF4CFDBFF020E51
:104EC000DBCF14F0030EDBCF15F0F00ED8801454B6
:104ED000000E155407E2F00EF36E020EF3CFDBFF67
:104EE000030EDB6ADECFF7F0DDCFF8F0020EDBCF8A
:104EF000F9F0030EDBCFFAF00A0EE76EFD0EDBCF02
:104F0000E9FFFE0EDBCFEAFFE750E926000EEA22BA
:104F1000EF50E66E75EC1FF0E552000952E0030E0B
:104F2000E66E0A0EE76EFD0EDBCF14F0FE0EDBCF51
:104F300015F0E7501426000E152214C0E6FF15C028
:104F4000E6FFF9EC1DF0E552E552E552040EF3CF11
:104F5000DBFF050EF4CFDBFFD950040FE96EDACF8B
:104F6000EAFFFF0EEE1809E1ED5007E10A0EF36EBD
:104F7000040EF3CFDBFF050EDB6A040EDBCF14F06B
:104F8000050EDBCF15F0010E145C000E15580CE376
:104F9000040EDBCF16F0050EDBCF17F0140ED88011
:104FA0001654000E175407E2140EF36E040EF3CFDE
:104FB000DBFF050EDB6A040EDBCFFBF0050EDBCF5B
:104FC000FCF0AFDE3ADEFBC0E6FFFCC0E6FFF9C056
:104FD000E6FFFAC0E6FFF7C0E6FFF8C0E6FFE40E22
:104FE000146E560E156E166A14C0E6FFE66E16C0F5
:104FF000E6FFD950060FE66E000EDA20E66E7CEC76
:105000002BF0176E0B0EE15E1750D950060FE66EAF
:10501000000EDA20E66E72EC19F0E552E5521E0E33
:10502000E15C02E2E16AE552E16EE552E7CFD9FFC9
:0250300012006C
:0E503200D9CFE6FFE1CFD9FF1C0EE1265A0EC2
:10504000F36E120EF3CFDBFF130EDB6A9C0EF36ED2
:10505000140EF3CFDBFF150EDB684B0EF36E160E4E
:10506000F3CFDBFF170EDB6A2C0EF36E180EF3CFB7
:10507000DBFF010EF36E190EF3CFDBFF020EF36EB2
:105080001A0EF3CFDBFF1B0EDB6A1A0EDBCF14F018
:105090001B0EDBCF15F0D890155004E6090E145CFA
:1050A000000E155830E21A0EDBCFE9FF1B0EDBCFE6
:1050B000EAFFD890E936EA360F0EE926010EEA2219
:1050C000EECF16F0EFCF17F0D9CF14F0DACF15F0FE
:1050D000020E086E096A1A0EDBCF0DF01B0EDBCF35
:1050E0000EF0A2EC2AF014500624E96E15500720A9
:1050F000EA6E16C0EEFF17C0EDFF1A0EDB2A1B0E7C
:10510000C4E3DB2AC2D70C0EDBCF14F00D0EDBCFCD
:1051100015F0180EDBCF16F0190EDBCF17F0175075
:105120001518E8AE02D0153404D01450165C155092
:10513000175817E2080EDBCF18F0090EDBCF19F075
:10514000180EDBCF1AF0190EDBCF1BF01B5019180D
:10515000E8AE02D0193404D018501A5C19501B580C
:1051600022E30E0EDBCF14F00F0EDBCF15F0180E7E
:10517000DBCF16F0190EDBCF17F017501518E8AE7D
:1051800002D0153404D01450165C155017580BE398
:10519000120EDBCFE6FF130EDBCFE6FF140EDBCFE4
:1051A000E6FF150E66D00C0EDBCF14F00D0EDBCF34
:1051B00015F0180EDBCF16F0190EDBCF17F01750D5
:1051C0001518E8AE02D0153404D01450165C1550F2
:1051D000175817E2080EDBCF18F0090EDBCF19F0D5
:1051E000180EDBCF1AF0190EDBCF1BF01B5019186D
:1051F000E8AE02D0193404D018501A5C19501B586C
:1052000047E3100EDBCF14F0110EDBCF15F0180EB4
:10521000DBCF16F0190EDBCF17F017501518E8AEDC
:1052200002D0153404D01450165C1550175817E2EC
:105230000A0EDBCF18F00B0EDBCF19F0180EDBCF08
:105240001AF0190EDBCF1BF01B501918E8AE02D074
:10525000193404D018501A5C19501B5819E3140E55
:10526000DBCFE6FF150EDBCFE6FF120EDBCFE6FF4E
:10527000130EDBCFE6FF2EEC0AF0E552E552E552C5
:10528000E5522C0EE66E010EE66E04EC0AF0FDD03F
:105290000C0EDBCF14F00D0EDBCF15F0180EDBCFAC
:1052A00016F0190EDBCF17F015501718E8AE02D024
:1052B000173404D01650145C1750155822E3100E02
:1052C000DBCF18F0110EDBCF19F0180EDBCF1AF080
:1052D000190EDBCF1BF01B501918E8AE02D01934A1
:1052E00004D018501A5C19501B580BE3120EDBCF78
:1052F000E6FF130EDBCFE6FF140EDBCFE6FF150E45
:1053000043D00C0EDBCF14F00D0EDBCF15F0180ED2
:10531000DBCF16F0190EDBCF17F017501518E8AEDB
:1053200002D0153404D01450165C1550175822E3DF
:10533000100EDBCF18F0110EDBCF19F0180EDBCFFB
:105340001AF0190EDBCF1BF019501B18E8AE02D073
:105350001B3404D01A50185C1B5019580BE3140E60
:10536000DBCFE6FF150EDBCFE6FF120EDBCFE6FF4D
:10537000130E0AD0160EDBCFE6FF170EDBCFE6FFCB
:10538000160EDBCFE6FF170EDBCFE6FF2EEC0AF0A2
:10539000E552E552E552E552080EDBCF14F0090E56
:1053A000DBCF15F0180EDBCF16F0190EDBCF17F0A0
:1053B00015501718E8AE02D0173404D01650145CFC
:1053C0001750155822E30A0EDBCF18F00B0EDBCF77
:1053D00019F0180EDBCF1AF0190EDBCF1BF01B50A3
:1053E0001918E8AE02D0193404D018501A5C1950BC
:1053F0001B580BE3120EDBCFE6FF130EDBCFE6FFED
:10540000140EDBCFE6FF150E3AD0080EDBCF14F0FA
:10541000090EDBCF15F0180EDBCF16F0190EDBCF1F
:1054200017F017501518E8AE02D0153404D01450F8
:10543000165C1550175801E221D60A0EDBCF18F082
:105440000B0EDBCF19F0180EDBCF1AF0190EDBCFE5
:105450001BF019501B18E8AE02D01B3404D01A50B0
:10546000185C1B50195801E209D6140EDBCFE6FF79
:10547000150EDBCFE6FF120EDBCFE6FF130EDBCF00
:10548000E6FF2EEC0AF0E552E552E552E552F6D57C
:10549000006A0EAE51EF2AF00D6C0E1EE86A0E2265
:1054A000001E09AE59EF2AF0086C091EE86A0922AD
:1054B000001EF2EC2CF009BE69EF2AF000AE000CE1
:1054C000086C091EE86A0922046C051EE86A0522B8
:1054D000000C00BE60EF2AF00188FF0C006AE86A49
:1054E0000EAE7BEF2AF00B6C0C1E0D1E0E1E0C2256
:1054F0000D220E22001E09AE86EF2AF0066C071E52
:10550000081E091E072208220922001ECEEC2CF0DC
:1055100009BE9DEF2AF000AE000C066C071E081EA7
:10552000091EE86A072208220922026C031E041ED3
:10553000051E032204220522000C00BE8DEF2AF076
:105540000188FF0C09C013F008C012F008500D02CA
:10555000F4CF07F0F3CF06F009500E02F4CF09F0B4
:10556000F3CF08F00D02F3500726F4500822E86A42
:10557000092212500E02F3500726F4500822E86A5E
:1055800009220EAEC8EF2AF01250085E1350095AD5
:1055900013AE000C0D50085E0E50095A000C08C0E6
:1055A00012F008500D02F4CF07F0F3CF06F00950C7
:1055B0000E02F4CF09F0F3CF08F00D02F3500726E6
:1055C000F4500822E86A092212500E02F35007260E
:0A55D000F4500822E86A0922000CDA
:0655DA00462D422D534C4A
:1055E0002D53522D544C2D5452004D4F544F522098
:1055F000434845434B00434E3120434E3220434EF7
:105600003320434E340020202052756E6E696E6741
:10561000202E2E2E00557365722050726F677261B6
:105620006D000D0A005665722E352E333300652D40
:1056300047616467657420434F524500202D2D2E2D
:105640002D002533642E25642563430025336C64C7
:105650002025336C642025336C642025336C640072
:1056600025346C64202025346C64202025346C643F
:105670000025633A252D366C6425633A252D366C5A
:10568000640025633A252D366C6400434E31204377
:105690004E3220434E3320434E3400434E25643D6A
:1056A000253034752C002020423A253033752C25C6
:1056B0003033752C253033750D0A005665722E3542
:1056C0002E333300652D47616467657420434F5264
:1056D00045000D0A002C5553455F4C434400434E92
:1056E000696F3A00423A253033752C253033752CDA
:0756F000253033750D0A009F
:0856F800D9CFE6FFDACFE6FF8F
:10570000E1CFD9FFE2CFDAFFE652E652E652E652A7
:10571000D950F90F146EFF0EDA20156E020E14C068
:10572000DBFF030E15C0DBFF020EDBCFE6FF030E2F
:10573000DBCFE6FFF90EDBCFE6FFFA0EDBCFE6FFAD
:10574000FB0EDBCFE6FFD950FC0FE66EFF0EDA2032
:10575000E66ED5EC1FF0146E070EE15C02E2E16A22
:10576000E552E16E1450F3CFDEFFF4CFDDFFFC0E07
:10577000DBCFE9FFFD0EDBCFEAFFEF6ADECF14F0EF
:10578000DDCF15F014C0F3FF15C0F4FF040EE15C8B
:1057900002E2E16AE552E16EE552E5CFDAFFE7CFDA
:0457A000D9FF12001B
:0C57A4001E0EF66E080EF76E000EF86E7A
:1057B00002010900F550056F0900F550066F03E17D
:1057C000056701D03DD00900F550006F0900F55084
:1057D000016F0900F550026F09000900F550E96EEC
:1057E0000900F550EA6E090009000900F550036F41
:1057F0000900F550046F09000900F6CF07F2F7CF52
:1058000008F2F8CF09F200C2F6FF01C2F7FF02C2A8
:10581000F8FF0201035302E1045307E00900F550C9
:10582000EE6E0307F8E20407F9D707C2F6FF08C2D5
:10583000F7FF09C2F8FF02010507000E065BBFD79C
:02584000120054
:0E584200D9CFE6FFDACFE6FFE1CFD9FFE2CF04
:10585000DAFFFB0EDBCF14F0FC0EDBCF15F00001FE
:10586000800E15141AE1FB0EDBCFE9FFFC0EDBCF37
:10587000EAFFEECFF3FFEDCFF4FFEE2A000EEF22AA
:10588000F3CFE9FFF4CFEAFFFD0EDBCFEFFFEF50E0
:10589000156AF36E15C0F4FF10D0FB0EDB50FE0846
:1058A00006E1FD0EDBCFE6FF2AEC2DF005D0FD0E64
:1058B000DBCFE6FF03EC04F0E552E552E5CFDAFF7B
:0658C000E7CFD9FF120042
:0A58C60006500B02F3CF02F0F4CFFE
:1058D00003F00C02F3500326000EF420046E065071
:1058E0000D02F3500426000EF420056E06500E0241
:1058F000F350052607500B02F3500326F450042200
:10590000000E052207500C02F3500426F450052225
:1059100007500D02F350052608500B02F3500426E1
:10592000F450052208500C02F350052609500B02D2
:06593000F35005261200F1
:0A593600FE0EE3CFE9FFFF0EE3CF02
:10594000EAFFF36AF46AEE5203E0F34AF42AFBD763
:105950001200FF0EE3CFF8FFE552FF0EE3CFF7FF93
:10596000E552FF0EE3CFF6FFE552E66AE66AE66A25
:105970000900F55209E0FD0EE32A05E1FE0EE32AD7
:1059800002E1FF0EE32AF4D7FD0EE3CF07F0FE0E8F
:0C599000E3CF08F0FF0EE3CF09F0120097
:04599C00056A046A2A
:1059A000036A026A200EE76ED8900636073608367C
:1059B000093602360336043605360B50025C0C50AD
:1059C00003580D5004580E50055809E30B50025E61
:1059D0000C50035A0D50045A0E50055A062AE72E51
:0459E000E4D71200F6
:0C59E400056A046A100EE76ED8900836C1
:1059F0000936043605360D50045C0E50055805E393
:105A00000D50045E0E50055A082AE72EF0D71200FA
:105A1000F36AF46AFF0EE124E96EFF0EE220EA6EFB
:105A2000ED6607D02F0EEF6404D03A0EEF6001D080
:045A3000F32A120043
:0C5A3400000EF36E00EE00F0060E01D82C
:105A40001200EA6002D0EE6AFCD7F350E96012005F
:045A5000EE6AFCD727
:0C5A5400FF0EE350ACBA04D0AF6AAB8E7A
:105A6000AC8A949CACA2FED7AD6EF36EF46A1200C1
:105A7000FF0EE3501E6E1B0E00D001D0200EE76E0D
:0C5A8000E72EFED71E2EFAD700D0120031
:045A8C0015EE00F023
:105A900025EE00F0F86A018CD2EC2BF023EC09F033
:045AA000FDD712001C
:0C5AA400FF0EE350E84E1200000000D09E
:0A5AB00000D000D0E82EFAD7120053
:065ABA00303132333435B7
:0B5AC0003637383961626364656600A8
:055ACB0003070B0F139F
:105AD00023272B2F330100020004000800100020B0
:105AE00000400080000001000200040008001000D7
:095AF000200040008019FCFFFFBA
:00000001FF
